:100000000C9416020C9433020C9433020C943302B9
:100010000C94A4200C9433020C9433020C943302FD
:100020000C9433020C9433020C945D260C942F270D
:100030000C94221F0C9433020C9433020C94330260
:100040000C9433020C9433020C9433020C9433025C
:100050000C9433020C94C71F0C9433020C9433029B
:100060000C9433020C9433020C9433020C9433023C
:100070000C9433020C9433020C9433020C9433022C
:100080000C9433020C9433020C9433020C9433021C
:100090000C9433020C9433020C9433020C9433020C
:1000A0000C9433020C9433020C943302AC04AC0471
:1000B000D804D80439055705350635065C05C4054E
:1000C000D505D505AE162017B61680168416BA16B5
:1000D0008716BD16C816921616179616CC169A16BF
:1000E000D016FA169E16D4160417A416DA16E416BD
:1000F0008B16C1168E16C416A916DF16F016101729
:1001000012177C16B2162917651B6B1B591B5F1B38
:10011000711B771B7D1B7A1C7D1CB41CC71CCF1C5C
:10012000DA1CDD1CDD1CDD1C251D251DE21CE51C6B
:10013000EA1CF71C041D071D0B1D181D9727BE2761
:10014000B628BE27B6280A282D28B6288428932842
:1001500029001E001F002000210022002B00140097
:100160001A00080015001700E00004001600070040
:1001700009000A00E1001D001B000600190005002F
:100180002300240025002600270035001C0018004D
:100190000C001200130031000B000D000E000F00C8
:1001A0003300340011001000360037003800E5003D
:1001B00000000000000000002A2B280000000000C2
:1001C0000000000000000000000000290000000006
:1001D0002C1E3420212224342627252E362D373874
:1001E000271E1F202122232425263333362E37387D
:1001F0001F0405060708090A0B0C0D0E0F1011123B
:10020000131415161718191A1B1C1D2F3130232D06
:10021000350405060708090A0B0C0D0E0F10111204
:10022000131415161718191A1B1C1D2F3130354CB5
:1002300000000000000000000000000000000000BE
:1002400000000000000000000000000000000000AE
:10025000000000007E0F00D4FFFFFFC70000007801
:100260002A03740061006D00610072006F00680075
:100270002F006C006500740073005F007000720056
:100280006500740065006E006400000010035400F7
:1002900061006D00610072006F00680000000403DF
:1002A000090409025B00030100A0FA09040000012F
:1002B0000301010009211101000122440007058109
:1002C00003080001090401000203000000092111D4
:1002D0000100012222000705820320000107050317
:1002E000032000010904020001030000000921119C
:1002F00001000122B600070584032000011201005D
:100300000200000008341209000001010200010689
:1003100060FF0961A1010962150026FF00952075A3
:100320000881020963150026FF00952075089102D7
:10033000C005010902A10185020901A100050919F1
:10034000012908150025019508750181020501099B
:100350003009311581257F95027508810609381508
:1003600081257F950175088106050C0A38021581E3
:10037000257F950175088106C0C005010980A1018E
:10038000850319012AB700150126B70095017510DC
:100390008100C0050C0901A101850419012AA002F0
:1003A000150126A002950175108100C005010906FE
:1003B000A1018506050719E029E715002501950823
:1003C000750181020507190029EF1500250195F037
:1003D000750181020508190129059505750191022C
:1003E000950175039101C005010906A101050719D1
:1003F000E029E71500250195087501810295017531
:100400000881010507190029FF150026FF00950640
:1004100075088100050819012905150025019505B4
:1004200075019102950175039101C00011241FBE51
:10043000CFEFDAE0DEBFCDBF11E0A0E0B1E0E8E948
:10044000F3E502C005900D92AA3CB107D9F722E06E
:10045000AAECB1E001C01D92AE3FB207E1F70E94E5
:1004600042140C94CA290C940000811112C0683007
:1004700080F4463070F4E42FF0E086E0689FE00DF1
:10048000F11D1124EE0FFF1FE05BFE4F859194914B
:10049000089581E090E0089581E0089581E0089555
:1004A0000E944E0208950E94500208950E944E023A
:1004B000089508950E9459020895A6E0B0E0E3E689
:1004C000F2E00C94262949835A839E833091D1010E
:1004D00089819A81311115C03E81332359F022233D
:1004E00049F00E94CF07182F682F89819A810E94B6
:1004F000AB0703C00E94BD07182F69817A81812F45
:1005000004C00E94CF0769817A810E94200F26963D
:10051000E3E00C944229FC01262F40815181628145
:100520007381848195810E945D020895CF93DF934A
:10053000EC0161E00E948B02BE010E945302DF9138
:10054000CF910895CF93DF93EC0160E00E948B027E
:10055000BE010E945A02DF91CF91089581E0089573
:100560000E94AE020895CF93C82F0E94A6068C2F3A
:100570000E94B0022FEF84E39CE021508040904025
:10058000E1F700C00000CF91089581E00E94B3021E
:100590000E94ED1F089580E00E94B3020E94FE1F9A
:1005A00008950F931F93CF93DF938C0161E00E9416
:1005B0008B02EC01B8010E94471C882309F450C04B
:1005C000B801CE010E945602882309F449C0B8013F
:1005D000CE010E944D1B882309F442C0B801CE0110
:1005E0000E9458168823E1F1B801CE010E942E1610
:1005F0008823B1F1B801CE010E94901B882381F1BC
:10060000F8018581882341F1C3308CE7D807D1F008
:1006100040F4C115FCE7DF0791F0C130DC47A1F0E1
:100620001BC0CB35ECE7DE07A9F0CC35FCE7DF07D4
:1006300071F0CA35DC4781F40E94560C0DC00E944F
:10064000C5020EC00E945E0C0E94CB0209C00E942F
:100650004C0C02C00E945A0CC8010E944C0201C0FE
:1006600080E0DF91CF911F910F9108950E94FB1EB2
:100670000E94560308950E945A030E94041F089581
:1006800081E008950895CF93DF93D82F0E9440030F
:10069000C82F882319F08D2F0E9442038C2FDF91E1
:1006A000CF91089508950E944303089580E00E9429
:1006B000530308950E94351D0E9453030895CF935C
:1006C0000E94351DC82F8091CC01C81779F0C093C6
:1006D000CC010E94901F6093CD017093CE01809356
:1006E000CF019093D0018C2F0E945303CF91089596
:1006F000ADE0B0E0EEE7F3E00C9427294887598796
:100700006A877B878C879D8791110E94580BCE0149
:10071000019627E0FC0111922A95E9F726E0FE01F7
:100720003896DC0101900D922A95E1F72D81211177
:100730000AC029813A814B815C816D817E818F81E4
:100740000E94A20A04C00E9496028111F2CF2D9647
:10075000E2E00C944329FC012481213021F48081C2
:1007600091810E94FC070895662319F00E94C81722
:1007700002C00E9423180E949A180895CF938823DC
:1007800009F444C0C82F8CEF8C0F813A70F48C2F81
:100790000E94D81D882329F08C2F0E94781E0E9469
:1007A000DF0B8C2F0E94611E0CC080E28C0F883002
:1007B00058F4C77081E001C0880FCA95EAF70E941B
:1007C0003B0B0E94DF0B22C0EBE5EC0FE33040F463
:1007D000F0E0E358FE4F808190E00E94701D16C04B
:1007E000E8E5EC0FEB3150F4F0E0EE0FFF1FE95BB2
:1007F000FE4F808191810E94951D08C083E38C0F7C
:10080000833120F461E08C2F0E94B403CF910895CE
:10081000882381F19CEF980F913A18F40E94781E7A
:100820000DC090E2980F983060F4877091E001C09D
:10083000990F8A95EAF7892F0E94410B0E94DF0BDE
:1008400008959BE5980F933028F480E090E00E9493
:10085000701D089598E5980F9B3128F480E090E092
:100860000E94951D089593E3980F933118F460E06A
:100870000E94B40308951F93CF93DF93182FEB01C9
:100880000E94BE03209741F08FE99FE00197F1F7A6
:1008900000C000002197F6CF812F0E940804DF914D
:1008A000CF911F910895893319F060E070E002C084
:1008B00060E570E00E943B040895882321F00E94C7
:1008C0003B0B0E94DF0B0895882321F00E94410B0F
:1008D0000E94DF0B0895A0E0B0E0E1E7F4E00C94A3
:1008E00021297C01162FC72FFC01D5810681029595
:1008F0000F700E94310B8823F9F0DD23E9F08C2F73
:10090000807F803461F080E2810F8830A8F08C2FE6
:10091000807E803221F4123078F0002369F08091DB
:10092000D60282FF09C082E00E94200C0E94310B97
:1009300091E0D82ED92601C0D12CCC2EC2948FE0C4
:10094000C8228C2D90E08C30910508F08EC1FC01FE
:10095000EA5AFF4F0C940A298C2F807FCF7088238E
:1009600011F0C295C07FDD2399F0CC2309F469C151
:1009700080E2810F883010F0111104C08C2F0E948A
:100980003B0B03C08C2F0E944B0B0E94DF0B59C105
:10099000812F0E940804CC2309F467C180E2810FF3
:1009A000883038F1112329F18C2F0E94510B24C07B
:1009B0008C2F807FCF70803211F0C295C07F1123C1
:1009C00019F0113099F13CC08091D60282FD17C018
:1009D000DD2349F0CC2329F08C2F0E943B0B0E9491
:1009E000DF0B80E02FC180E00E940804CC2309F4D3
:1009F0003CC18C2F0E94410B0E94DF0B36C1DD23CE
:100A000049F0002309F1013009F02FC18C2F0E9419
:100A1000620B2BC1011129C18C2F0E9464048C2F01
:100A20000E946E0B8C2F0E94F30B1FC1DD2321F05F
:100A3000063008F01AC108C0053008F016C115C00C
:100A4000DD2331F00111FDC08C2F0E945D040DC12A
:100A5000002359F0193309F005C1FFEF27EE83E0B9
:100A6000F15020408040E1F7FBC08C2F0E946404CD
:100A7000FCC08C2F86958695837019F0813061F0CB
:100A8000F4C0DD2321F0812F9C2F937002C080E001
:100A900090E00E94701DF1C0DD2321F0812F9C2F7A
:100AA000937002C080E090E00E94951DE6C06D2F1B
:100AB000812F0E94B403E1C08C2F837079F5D1118E
:100AC000D8C0412F429546954770440F440F212FBF
:100AD0002F70042E01C0220F0A94EAF714FF08C0F9
:100AE0008FE090E001C0880F4A95EAF7809501C039
:100AF00080E0C695C695C370822BC23049F058F489
:100B0000C13019F00E94FD06B4C00E94F706B1C0C2
:100B10000E940307AEC00E94F406ABC0DD2319F0AB
:100B20008C2F817001C08695882309F4A2C0412FC3
:100B3000429546954770440F440F212F2F70042E85
:100B400001C0220F0A94EAF714FF08C08FE090E07A
:100B500001C0880F4A95EAF7809501C080E0C695EC
:100B6000C695C370822BC23049F058F4C13019F0D9
:100B70000E9449077EC00E9443077BC00E944F0726
:100B800078C00E940C0775C0CF70DD2339F08C2F20
:100B90000E941E07812F0E945D046BC0812F0E945E
:100BA00064048C2F0E942A0764C0123F21F128F4AC
:100BB000103F41F0113FC1F040C0133F19F1143F05
:100BC00079F03BC0DD2341F0053008F04EC08C2F9A
:100BD0008F710E94370749C0063008F046C0F7CF32
:100BE0008091D60282FD18C0DD2339F08C2F8F71E1
:100BF0000E941E073AC0DD23C9F38C2F8F710E941B
:100C00002A0733C0DD2329F08C2F8F710E9415072E
:100C10002CC00E94110729C0DD2331F063E08C2F26
:100C20008F710E94020C21C081E00E94200C0230D2
:100C3000E0F082E00E94200C18C0DD2331F0002398
:100C4000A9F2812F0E94BE0310C00023B1F2193314
:100C500049F49FEFE7EEF3E09150E040F040E1F718
:100C600000C00000812F0E94080488EF8C0D8430A2
:100C700020F40E94351D0E945303DD2089F00E945C
:100C80002D0B80FD0DC0F70115820E94270B0E94DD
:100C90001E07C7010E946D060E94270B0E942A07AB
:100CA000CDB7DEB7E8E00C943D290F931F93CF93A7
:100CB000DF93EC01688179818D810E9407088C01A6
:100CC0000E9455070E94E706B801CE010E946B04FE
:100CD000DF91CF911F910F910895CF93DF93FC0186
:100CE00024812223D1F0EC010E94D10281110FC096
:100CF0000E94310B882389F08D81882371F08091C7
:100D0000D60282FF0AC082E00E94200C06C0CE01FB
:100D10000E945506CE010E94A202DF91CF91089554
:100D200080E090E00E94701D80E090E00E94951DA0
:100D30000E94580B0E94DF0B0E94B9180E949A185B
:100D400008950E948F1E0E94900608950E94480BED
:100D50000E94A106089592959F70963079F010F444
:100D6000925001C09A50923068F4803F69F018F4B4
:100D7000883E40F409C0843F29F406C0883E20F034
:100D8000813F11F080E0089581E00895FC01248105
:100D9000222339F0808191810E94FC070E94AB06DA
:100DA000089580E00895A6E0B0E0E9EDF6E00C9447
:100DB00027292696E2E00C944329A7E0B0E0E3EE71
:100DC000F6E00C9427292796E2E00C944329089535
:100DD00008950E94E80608950E94E90608950E9479
:100DE000EC068093E50108950E94EF060895909126
:100DF000E501892B0E94EF0608959091E501892372
:100E00000E94EF0608959091E50189270E94EF0660
:100E100008950E94E80608950E9409078093E4015E
:100E2000089580E00E940C07089591E001C0990F99
:100E30008A95EAF7892F0E940C07089521E030E097
:100E400001C0220F8A95EAF78091E401822B0E946B
:100E50000C07089521E030E001C0220F8A95EAF7DF
:100E600020958091E40182230E940C07089521E0DF
:100E700030E001C0220F8A95EAF78091E4018227D1
:100E80000E940C0708959091E401892B0E940C07A1
:100E900008959091E40189230E940C070895909190
:100EA000E40189270E940C0708950895962F9770F2
:100EB000A1E001C0AA0F9A95EAF793E076956795AD
:100EC0009A95E1F7FB01EE0FFF1F6E0F7F1FFA01EE
:100ED000E60FF71F40E050E0682F70E090819B0123
:100EE000042E02C0369527950A94E2F721702195C9
:100EF00029272A23292721934F5F5F4F433051052C
:100F000069F708959B01782F777043E09695879550
:100F10004A95E1F7FC01EE0FFF1F8E0F9F1FF901AD
:100F2000E80FF91F40E050E080E0219130E0072E0B
:100F300002C0369527950A94E2F721703327042ED4
:100F400001C0220F0A94EAF7822B4F5F5F4F4330B4
:100F5000510559F70895282F983070F4863060F4C1
:100F6000862F622F70E026E0929F600D711D112484
:100F700042ED51E00E9456070895983070F4863093
:100F800060F4292F90E062ED71E036E0239F800D40
:100F9000911D11240E948207089580E00895CF9248
:100FA000DF92FF920F931F93CF93DF936C01009119
:100FB000E4018091E501082BC3E0D0E010E0C80116
:100FC0000C2E02C0959587950A94E2F780FD04C027
:100FD0002197A8F7F12C07C0FC2EB6018C2F0E9498
:100FE0002C0F0197A9F38F2DDF91CF911F910F91B6
:100FF000FF90DF90CF900895CF93DF93EC010E9494
:10100000CF07BE010E942C0FDF91CF9108951F934F
:10101000CF93DF93EB019091D101992321F0CB0184
:101020000E94FC0713C0882349F0CB010E94CF0720
:10103000182F682FCE010E94AB0704C0CB010E947D
:10104000BD07182FBE01812F0E942C0FDF91CF9179
:101050001F910895E1E0F0E0DF0102C0AA0FBB1F7D
:101060006A95E2F7BD01DF0102C0AA0FBB1F4A95D6
:10107000E2F7AD01462B01C0EE0F2A95EAF7942F57
:101080009823491302C08E2B0895E0958E2308956E
:10109000242F462F682F8091E4010E942A080E9485
:1010A0000C0708951F93CF93DF93C091E60117E0DB
:1010B0008091E701C817A1F0D0E01C9FF0011D9FAF
:1010C000F00D1124E851FE4F20813181428153817E
:1010D0006481758186810E94DD062196C770E8CF04
:1010E000DF91CF911F91089520912002309121022C
:1010F00040912202509123026091240270912502B6
:10110000809126020E94DD060895CF93DF9380919F
:10111000260282958F7009F04EC0809125028823A7
:1011200009F449C08091E6014091E7015091210204
:1011300060912002C0912202D091230277E08417AF
:10114000D1F190E0789FF001799FF00D1124DF013B
:10115000A851BE4F14962C911497222349F1119651
:101160002C911197251324C02C91261321C015967C
:101170002C91159721111CC012962D913C9113971B
:101180002C1B3D0B283C310598F4809126028F7072
:10119000806180932602E251FE4F80818F708061D2
:1011A000808380E292E00E946D060E94520803C094
:1011B00001968770C4CFDF91CF9108952091E60109
:1011C0009091E70157E02917A9F030E0529FF00114
:1011D000539FF00D1124E851FE4F7181761306C024
:1011E0007081781303C07581741306C02F5F3F4F61
:1011F0002770E9CF80E0089581E00895A4E1B0E090
:10120000E4E0F9E00C941D298C0186E0F801DE0190
:101210001F9601900D928A95E1F7F8018481E5808F
:1012200090E2A92E92E0B92E90912402911118C05B
:10123000882309F480C1EE20D9F1C8010E94C606B6
:10124000F82E8823A9F187E0F801D50101900D92CD
:101250008A95E1F7C5010E94AB030E94850898C0FA
:10126000F801C080D18082809380F0902502209187
:10127000220230912302A401421B530BFF2009F4E8
:1012800006C1483C510508F0AFC0882309F455C198
:1012900080912602282F207F90912102222361F045
:1012A0009D1509F462C0C8010E94C606811173C071
:1012B000C8010E946D063FC19D1115C0909120028A
:1012C0009C1111C0E1100FC08F70806180932602C5
:1012D0000E94740880E292E00E946D0680912602CE
:1012E000F801868326C1E1103AC040E06D2D8C2DB7
:1012F0000E94DE0840E06D2D8C2D0E94DE08E82E55
:10130000811117C1CF86D88A8F8598890E94FC07E2
:10131000292F22952F70243020F49F70223028F03E
:1013200009C02A50223080F014C0992349F081115D
:1013300007C013C0992321F0F8019681907F69F0CE
:10134000805E883030F409C0803F38F0815F8330A0
:1013500020F0C8010E946D06EF2CFE2CEEC080919B
:101360002602816080932602E4C0909120029C11A5
:101370009ACFE11098CFF8018683C8010E946D06CC
:1013800087E0F801A0E2B2E001900D928A95E1F7C2
:101390000E947408D2C0EE2009F48ACF2091260260
:1013A000822F82958F7090E002978CF080912002BE
:1013B00090912102998788879B868A868091240252
:1013C0008C871D862E87CE0108960E946D0687E0C9
:1013D000F801A0E2B2E001900D928A95E1F70E9437
:1013E00085080E947408A7C090912602292F207FAB
:1013F000A1F4682D9A8A898AA6017A899E2D0E9475
:10140000D30680E292E00E946D0687E0F50111921A
:101410008A95E9F70E9474088CC0882309F48DC06E
:10142000809121028D1111C0809120028C110DC07C
:10143000E1100BC0F8019683C8010E946D0687E099
:10144000F50111928A95E9F778C0C8010E94C60695
:10145000882309F42DCFEE2009F42ACF209126020B
:10146000822F82958F7090E002970CF4B0CF80911C
:101470002002909121029A8389839C828B828091A1
:1014800024028D831E822F83CE0101969ECF483C7D
:10149000510508F040C0882309F44DC0FE2CEE2011
:1014A00009F406CF809121028D1127C0809120027E
:1014B0008C1123C09091260290FD16C0892F829531
:1014C0008F70282F30E02115310571F0F8019683D7
:1014D0002F30310509F451CF8F5F982F9295907F6F
:1014E00086818F70892B48CF87E0F801A0E2B2E0B7
:1014F00001900D928A95E1F720C0C8010E94C606AE
:10150000811165CF80912602816080932602C801F7
:101510000E946D0612C0682D9A8A898AA6017A896E
:101520009E2D0E94D30687E0F50111928A95E9F776
:101530002FCFF12C02C0FF24F3948F2D6496ECE0A2
:101540000C943929AEE0B0E0E8EAFAE00C942629E0
:10155000288739874A875B876C877D878E87CE018E
:1015600008960E94FE08882361F06C856623A9F125
:10157000288539854A855B857D858E850E94DD06B7
:101580002CC087E0FE013896DE01119601900D9285
:101590008A95E1F76C85662301F12091E70130E03F
:1015A000C9010196877099274091E60150E08417A0
:1015B0009507E1F16D8397E0929FD001939FB00D65
:1015C0001124A851BE4FFE01319601900D929A95BB
:1015D000E1F78093E7010E94520817E08091E6014D
:1015E0009091E701891779F1189FC0011124885162
:1015F0009E4F0E94FE08882331F1E091E6011E9F74
:10160000F0011124E851FE4F208131814281538144
:101610006481758186810E94DD068091E60190E0FB
:101620000196877099278093E601D8CF0E94A6067D
:101630001092E7011092E601E0E2F2E087E0DF01BC
:101640001D928A95E9F72E96E3E00C944229809149
:101650004F02869586958695089580914F028770F2
:10166000089590914F02977081E009F480E0089509
:1016700080917B02089590917B02892B80937B025D
:101680000895809590917B02892380937B02089531
:1016900010927B02089590917A02892B80937A02AE
:1016A0000895809590917A02892380937A02089513
:1016B00010927A02089508950E945B0B08950E948B
:1016C0005C0B089590915102292F2823821729F04D
:1016D000982B909351020E945F0B089590915102B4
:1016E000292F282331F080958923809351020E946D
:1016F0005F0B089580915102882329F010925102C6
:1017000080E00E945F0B0895CF93C0917B0280918F
:101710007A02C82B80915102882331F0C82B0E9495
:10172000BA1D81110E947A0B8C2FCF910895CF930F
:10173000DF93C0910201D09103010E94840B888342
:10174000C0910201D091030148E050E067E472E0EB
:10175000CE010E946229892B59F088E0FE01A7E49E
:10176000B2E001900D928A95E1F7CE010E94491DE9
:10177000DF91CF910895CF93DF93C0910001D09175
:1017800001010E94840B8983C0910001D091010165
:1017900040E250E067E272E0CE010E946229892BAC
:1017A00059F080E2FE01A7E2B2E001900D928A9525
:1017B000E1F7CE010E94541DDF91CF9108958091F1
:1017C0003C01882339F08091D50287FF03C00E9435
:1017D000BB0B08950E94970B08950E945B0B089520
:1017E0000E94ED0B089590915002292F282331F08B
:1017F00080958923809350020E94F00B08950E94E7
:101800005B0B08959091D60292FF11C098E0899FDA
:1018100090011124262B20934F020E941E078091D5
:101820004F028695869586950E94FF0B08950E942B
:101830001E07089510924F0280E00E94FF0B08954A
:1018400090914F028095892380934F02282F277013
:1018500069F4981759F09091D60292FF07C08695C7
:10186000869586950E942A070E941A0C08959091E9
:10187000D60292FB222720F9281769F080FB92F903
:101880009093D6028091D5029091D6020E94800C4E
:1018900082E00E94200C08958091D60282FB882766
:1018A00080F991E089270E94370C089581E00E9419
:1018B000370C089580E00E94370C08956FEF7FEF9A
:1018C00080E090E00E94B429089580E090E00E94BA
:1018D0008029853E9E4F19F40E94DB1B089580E00D
:1018E000089582E090E00E947829089583E090E0D6
:1018F0000E947829089584E090E00E94802908954C
:10190000BC0184E090E00E94B4290895AB01BC01C1
:101910008FE090E00E94A8290895AB01BC0183E10B
:1019200090E00E94A829089560E070E0CB010E9439
:101930008D0C089560E070E0CB010E94860C0E943F
:10194000940C0895A8E0B0E0E8EAFCE00C942729A4
:1019500065EE7EEF80E090E00E94B42960E082E0D6
:1019600090E00E94962981E08093E50161E083E0A8
:1019700090E00E94962960E074E184E090E00E948B
:10198000B42960E086E090E00E94962960E087E05C
:1019900090E00E94962940E050E0BA0188E090E093
:1019A0000E94A82960E083E290E00E94962960E00E
:1019B0008CE090E00E94962960E08DE090E00E942B
:1019C000962919821A821B821C821D821E821F8206
:1019D000188648E050E067E170E0CE0101960E9471
:1019E000862940E050E0BA018FE190E00E94A829EA
:1019F00080E00E94F41B0E94291C0E949A0C2896E9
:101A0000E2E00C9443290E94A20C0895682F8EE016
:101A100090E00E9496290895A6E0B0E0E2E1FDE0A2
:101A20000C9425290E94841F8C0180917C02909146
:101A30007D020817190781F019821A820E94841FFB
:101A4000682F49815A81792F80E090E00E947803C5
:101A500010937D0200937C022696E4E00C944129C9
:101A60000E94421060938A0270938B0280938C02D2
:101A700090938D0260938602709387028093880210
:101A800090938902089581E008950E944912089573
:101A900008950E94480D08950E94480D08950E94DF
:101AA0004C0D08950E94480D08950E94520D08950E
:101AB0000E94480D08958CE590E10E9459140E94FF
:101AC000580D0E94550D08950E94490D0E94480D21
:101AD00008950E94650C811102C00E94030D0E94AE
:101AE000710C80938E020E947B0C9093D60280939F
:101AF000D5020E947C140E94760C0E94F40680910C
:101B0000E4010E94090708950E947B1F0E941C1097
:101B10000E94391C0E944F120E946E110E94690D92
:101B20000E9452030E947F140E9461120E944F0D76
:101B30000895A6E0B0E0EFE9FDE00C941E290E94B4
:101B4000430D811103C00E940C0D53C00E94C211AD
:101B50008EE7E82E82E0F82E670100E0F601119191
:101B60006F01802F0E945E1081270F5F083019F0EF
:101B70008823A1F302C0882331F380918E0281FD76
:101B80000E9464100E94450DA82E10E099249394A1
:101B9000812F0E945E10B82EF701C080C82609F17F
:101BA00000E0DD24D3948C2D8D21A9F0AA2099F09A
:101BB00009831A830E94841F9C838B839D8291E0FA
:101BC0008B2D8D2109F490E049815A816B817C81B4
:101BD0008D810E9478030F5FDD0C063021F7F7013D
:101BE000B0821F5FFFEFEF1AFF0A183089F60E94DC
:101BF000300D0E9449120E94DB180E945F03269656
:101C0000EBE00C943A291F93CF93DF930E94310F9E
:101C1000EC01C11580E5D807E8F5C11590E4D907B6
:101C200008F0A8C0C03ED10530F5CD3CD10508F084
:101C300094C0C83AD10578F4C53AD10508F083C0FC
:101C4000C130D10509F47CC008F4F2C0C430D1051C
:101C500008F0F1C0EDC0C33CD10508F0E9C0C85A96
:101C6000D0E0CC0FDD1FC058DE4F0990D881C02DC9
:101C7000CE019464E1C0C11580E2D80708F0CBC062
:101C8000C11591E0D90708F06BC0C83ED10508F432
:101C9000D2C0CEC0C03682E5D80728F5C03492E560
:101CA000D90708F079C0C03282E5D80708F06CC0C7
:101CB000C11592E5D90708F481C04C2F4695469589
:101CC00080E2489FA0011124C37021E030E0C901E7
:101CD00002C0880F991FCA95E2F7EA01C82BD92BD9
:101CE000CE019D68A9C0C03A82E5D807B8F48C2F10
:101CF0008F71C03892E5D90708F07BC0869586952C
:101D000090E2899F90011124C37081E090E002C0AD
:101D1000880F991FCA95E2F79A6868C0C03C82E5AF
:101D2000D80708F46DC0C03E92E5D90708F080C01E
:101D3000CF71DD27DC2FCC27CE01806F906A7CC06D
:101D400081E090E079C0C55AD0E0CA54DE4F888166
:101D5000C82FD0E0CE0190646FC0CE0190656CC0FA
:101D60008D2F0E94CD0F182FCE0199270E94310F81
:101D70001F715CC0CE0199270E94310FCC27DF7004
:101D8000D06A8C2B9D2B58C0CF71D0E0DC2FCC2794
:101D9000CE01816F906A50C08C2F8F718695869589
:101DA00090E2899F90011124C37081E090E002C00D
:101DB000880F991FCA95E2F79C6818C08C2F8F7105
:101DC0000E94CD0F95E0D695C7959A95E1F7CF7013
:101DD000D0E0DC2FCC27282F30E084FF05C084E042
:101DE000220F331F8A95E1F7D069CE01822B932B06
:101DF00023C090E0D82FCC27CE01846F906A1CC0FE
:101E00008C2F8F710E94CD0F8F7190E0D82FCC272F
:101E1000CE01906211C08D2F8F710E94CD0F182FAF
:101E2000CE0199270E94310F1F719062912B04C03F
:101E300080E090E001C0CE01DF91CF911F91089525
:101E4000783038F4663028F4462F672F0E94461504
:101E5000089580E090E008950E94200F0E94030EF4
:101E600008958238910569F1B0F48133910509F440
:101E700075C048F48932910509F467C08A3291052A
:101E800009F471C008958533910509F459C0893367
:101E90009105B9F00895833E910589F138F4803EAB
:101EA0009105D1F0823E910529F10895863E910574
:101EB000C9F1873E9105D9F1843E910509F06CC0C6
:101EC00027C02091D50220FD57C021FD55C020918B
:101ED000D60223FD5BC008958091D50280FD48C0E5
:101EE0008091D60280FF48C08091D50284FD46C013
:101EF00083EE51C08091D50282FF3CC0F5CF809126
:101F0000D50282FD37C08091D60280FD35C0ECCF6E
:101F10008091D60281FF36C08091D50284FD2EC00B
:101F200087EE39C08091D50283FF2AC0F5CF80911A
:101F3000D50283FD25C08091D60281FD23C0ECCF60
:101F40008091D50285FD22C01FC08091D50285FDFC
:101F50001BC08091D60283FF19C00AC08091D502B0
:101F600086FD16C017C08091D50286FD13C010C033
:101F700089E311C082EE0FC080EE0DC080E00BC07F
:101F800086EE09C084EE07C085E305C089E203C080
:101F90008AE201C081E390E008959091D50292FF1A
:101FA00010C041E0282F2471243009F040E031E0D6
:101FB000282F2871283009F030E0431711F02CE069
:101FC000822793FF10C041E0282F2471243109F0AB
:101FD00040E031E0282F2871283109F030E0431724
:101FE00011F02CE082273091D60230FF10C051E072
:101FF000282F2171213009F050E041E0282F28716D
:10200000283009F040E0541711F029E0822731FF11
:1020100010C041E0282F2171213109F040E031E06A
:10202000282F2871283109F030E0431711F029E0FA
:10203000822794FD877E08951092D7021092D802CD
:102040001092D9021092DA020895CF92DF92EF92A5
:10205000FF926B017C010E94491281110EC00E9407
:10206000901FC61AD70AE80AF90AC092D702D0927E
:10207000D802E092D902F092DA02FF90EF90DF905E
:10208000CF9008950F931F930E944912882319F04F
:102090000E94901F0EC00E94901F0091D7021091C5
:1020A000D8022091D9023091DA02600F711F821F8D
:1020B000931F1F910F91089580E00895E82FF0E09D
:1020C000EC51FD4F80810895089580EA8A95F1F7DB
:1020D000089500C008950E946510089508950E9413
:1020E0006E1008950E946F1008950E946E1008955A
:1020F0000E94751008950E946E100895A4E0B0E04B
:10210000E4E8F0E10C9425290E9449126091EC0268
:102110008823E9F119821A821B821C82862F90E0A3
:102120008E010F5F1F4FB8018C519D4F0E946F129F
:10213000882389F08091DB0290E044E050E0B80110
:102140008C519D4F0E94622921E020938F02892BA0
:1021500069F410E019C080918F028823D1F384E0E4
:10216000F80111928A95E9F710928F02E091DB0253
:10217000F0E0EC51FD4F89819A81AB81BC81808375
:102180009183A283B38311E00E9472100DC070E0AE
:102190006C517D4F8091DB0290E08C519D4F0E94ED
:1021A000F8120E947B1010E0812F2496E4E00C943A
:1021B0004129F894E82FE295EF70F0E031A1282F43
:1021C0002F7081E090E001C0880F2A95EAF7982FE0
:1021D0009095932391A392A1892B82A3789408953B
:1021E0000F931F93CF93DF93CAE0D1E089918F3F84
:1021F00011F00E94D91081E0CE30D807B9F7C4E0C1
:10220000D1E00AE011E089918F3F11F00E94D910CE
:102210000C171D07C1F7DF91CF911F910F91089502
:10222000A0E0B0E0E6E1F1E10C9421298C01C62F99
:10223000D0E0CE01865F9E4F7C01FC0190819F3FE4
:1022400009F447C0D62EF894E92FE295EF70F0E03C
:1022500081A19F7021E030E001C0220F9A95EAF73A
:10226000822B81A382A12095282322A378940E9407
:102270006910E4E0F1E04AE051E031E0C12C219145
:102280002F3F89F0A22FA295AF70B0E090968C916D
:1022900090E02F7002C0959587952A95E2F780FD12
:1022A00002C0832F01C080E0C82A330F4E175F079A
:1022B00031F7F70180818F3F11F00E94D91061E062
:1022C000C11001C060E08D2D0E946B10C00FD11FA6
:1022D000C882CDB7DEB7E8E00C943D29A6E0B0E0B7
:1022E000E4E7F1E10C94272980910E01811124C0CB
:1022F00030913D0120913E0190913F01809140013C
:1023000030930A0120930B0190930C0180930D01EF
:1023100086E0E1E4F1E0DE01119601900D928A95EC
:10232000E1F7FE013196A4E0B1E0CE0107962191DC
:102330002D938E179F07D9F780910E01811102C04E
:1023400094E001C090E09093EC0284E0891B8093BC
:10235000DB020E94F01088E0E4EEF2E0DF01982F4B
:102360001D929A95E9F7ECEDF2E0DF011D928A9556
:10237000E9F784E00E9400120E9478102696E2E0BD
:102380000C944329A8E0B0E0E8ECF1E10C94242996
:102390008E010F5F1F4F88E0F80111928A95E9F7CF
:1023A000F12C6F2DC8010E941011F394F4E0FF127C
:1023B000F8CF48E050E0B8018CED92E00E9462292D
:1023C00021E0009709F420E0892B41F088E0F80132
:1023D000ACEDB2E001900D928A95E1F76091EC02CC
:1023E00070E06C517D4F44E08CED92E00E94011250
:1023F000182F0E947E10812B2896E5E00C9440292E
:102400000895EF92FF920F931F93CF93DF937C0178
:102410008B01C42F222351F081E0809392020E940D
:10242000841F909391028093900204C08091920245
:10243000811102C080E01AC08091900290919102B7
:102440000E949C1F0597B0F3D0E0AE01B701C80110
:102450000E946229892B39F0AE01B701C8010E94A0
:102460006F2981E001C080E010929202CDB7DEB703
:10247000E6E00C943F29CF930E94E928C82F8111F0
:1024800002C00E94E4288C2FCF910895809196027B
:1024900008958091950208950E94491208950E941E
:1024A0003B12809395020E944C12809396020E94E8
:1024B000461280930E010E94491281110E94A712B8
:1024C00008950E944912811102C00E94AA12089523
:1024D00081E0909197029A3008F080E008950F9380
:1024E0001F93CF93DF93EC018B01809197028A3089
:1024F00038F4B801CE010E94F51281111DC00AC046
:1025000080919302909194020E949C1F843F91407D
:1025100080F715C0809197028F3F19F08F5F8093ED
:102520009702809197028A3060F00E94841F9093F6
:1025300094028093930203C01092970202C080E03D
:1025400001C081E0DF91CF911F910F9108950E940A
:102550005F2008950E9462200895A0E0B0E0E3EBC0
:10256000F2E10C9422297901C82F880FDD0B411567
:102570005105A9F0FE0193E0EE0FFF1F9A95E1F7D8
:10258000E15FFE4F8181928188569D4F208130E02E
:102590004217530708F49A01A9010E946F29CE013E
:1025A0000E944A21D82E8823D1F001151105B9F0D7
:1025B00083E0CC0FDD1F8A95E1F7FE01E15FFE4F5E
:1025C000438150E00417150708F4A801C15FDE4FEE
:1025D0006C817D8168567D4FC7010E946F298D2DCA
:1025E000CDB7DEB7E7E00C943E290E94F2130895C0
:1025F0000E9409140895A4E0B0E0E1E0F3E10C9436
:1026000025296091AD027091AE028091AF02909148
:10261000B0020E94AB1F643671058105910528F157
:102620000E944210DC01CB010296A11DB11D8983DD
:102630009A83AB83BC8300E010E020E030E044E00C
:1026400050E0BE016F5F7F4F82E00E94AD12182FF5
:10265000882361F00E94901F6093AD027093AE02D8
:102660008093AF029093B00201C011E0812F2496B5
:10267000E4E00C944129A0E0B0E0E1E4F3E10C9443
:102680001F297C015B016A010E946812811103C04D
:1026900001E010E002C00AE010E0C1E0D0E0B501C6
:1026A000C701F6010995811115C021960C171D0768
:1026B00094F0CC9F9001CD9F300D300D112480E01F
:1026C00090E045E34A95F1F70000019682179307E1
:1026D000C1F7E5CF81E0CDB7DEB7EAE00C943B2946
:1026E000A5E0B0E0E6E7F3E10C941F295B01E09080
:1026F000B901F090BA0101E010E09E012B5F3F4F5D
:1027000040E050E060E070E080E00E94AD12182FE1
:10271000882309F43EC067018FEFC81AD80A609178
:10272000A9027091AA028091AB029091AC020E9422
:10273000AB1F643671058105910518F104E010E0C6
:102740009E012F5F3F4F40E050E060E070E081E08D
:102750000E94AD12182F64E070E0C6010E94801440
:1027600091E02D81281390E0192351F10E94901FD0
:102770006093A9027093AA028093AB029093AC027B
:1027800011C064E070E0C6010E9480149D8189132D
:10279000D5CFF70181819281A381B48189839A8306
:1027A000AB83BC83112361F089819A81AB81BC81A9
:1027B0008093A5029093A602A093A702B093A802CB
:1027C0008091A5029091A602A091A702B091A802C3
:1027D000F50180839183A283B383812F2596EAE05C
:1027E0000C943B290F931F93CF93DF93EC018B0144
:1027F00040E753E10E943B13882331F04BEF52E155
:10280000B801CE010E943B13DF91CF911F910F9130
:1028100008950F931F93CF93DF93C091B901D09187
:10282000BA01CE01019624E0FB01DC0101900D927A
:102830002A95E1F764E070E00E94801488836D813E
:102840007E818F8198850091A1021091A202209132
:10285000A3023091A402601771078207930751F019
:102860006093A1027093A2028093A3029093A402AA
:102870000E942510DF91CF911F910F9108950E9422
:10288000990D08950E941B1F0E9456230E945B0D04
:102890000E9470230E94840D0E947D230E94822347
:1028A0000E943F140E949C230E941E220E94640DDD
:1028B000F5CF9093CB018093CA0108950E945E0CDE
:1028C000089580E00E945E10817008950E94C211F8
:1028D0002FEF86E791E0215080409040E1F700C063
:1028E00000000E94C2110E946114882321F00E94FE
:1028F0005E140E94ED1F08950E94661408950895C5
:10290000FC01680F791F8FEF91E3E617F70771F06D
:102910002191822728E030E087FF03C0880F8927B4
:1029200001C0880F21503109B9F7EFCF089584E035
:10293000089550E0440F551F2CE0629F400D511D3B
:1029400011249A0160E6869F200D311D1124C901D2
:10295000889608950F931F93CF93DF938430A0F44C
:10296000683090F4463080F40E9499148C010E94E3
:10297000782990E0D82FCC27C80101960E947829A9
:102980009E01282BC90102C080E090E0DF91CF9129
:102990001F910F9108950F931F93CF93DF9384306E
:1029A00080F4683070F4463060F4E9010E949914B4
:1029B0008C016D2F0E9496296C2FC80101960E94F0
:1029C0009629DF91CF911F910F9108951F93CF9377
:1029D000DF93D0E0C0E010E0412F6C2F8D2F0E94DC
:1029E00035029C01412F6C2F8D2F0E94CB141F5F4D
:1029F000163091F7CF5FC83071F7DF5FD43051F7F1
:102A0000DF91CF911F910895EF92FF920F931F9343
:102A1000CF93DF93EA017A01E60EF71E8C01C8011D
:102A20008896CE15DF0569F0003821E0120720F402
:102A30000E947829888301C0188221960F5F1F4F5A
:102A4000EECFCDB7DEB7E6E00C943F29EF92FF92D0
:102A50000F931F93CF93DF93EA017A01E60EF71EDF
:102A60008C01C8018896CE15DF0559F0003821E0A9
:102A7000120718F468810E94962921960F5F1F4F54
:102A8000F0CFCDB7DEB7E6E00C943F29843038F4C0
:102A9000683028F4463018F40E94AA14089580E0A3
:102AA00090E0089580E1089588E592E00895EF921E
:102AB000FF920F931F93CF93DF93EA017A01E60E03
:102AC000F71E8C01C80188559E4FCE15DF0569F0B1
:102AD000083522E0120720F40E947829888301C07B
:102AE000188221960F5F1F4FEDCFCDB7DEB7E6E01E
:102AF0000C943F29EF92FF920F931F93CF93DF9394
:102B0000EA017A01E60EF71E8C01C80188559E4F36
:102B1000CE15DF0559F0083522E0120718F4688158
:102B20000E94962921960F5F1F4FEFCFCDB7DEB7DA
:102B3000E6E00C943F29CF93DF93C8EAD1E060E050
:102B4000CE010E9496292196C11584E0D807B9F7D5
:102B5000DF91CF910895A8E0B0E0E1EBF5E10C94AE
:102B60001D29F82E8FE08F1508F474C08FEF93E0C5
:102B70000E94782981116EC008EA11E0FF2071F0EF
:102B8000011594E0190709F465C0C8010E9478296D
:102B9000811101C0FA940F5F1F4FF0CFFE013196F3
:102BA0006F0188E011928A95E9F77801FFEFEF1A3B
:102BB000FF0AC8010E94782989831A82882309F4B0
:102BC00049C0813009F040C0580182E0A80EB11C14
:102BD000C7010E9478298A838823E1F19FEF980F2B
:102BE000933060F4780193E0E90EF11CC5010E9476
:102BF00078298B83882371F11C8226C0843019F5D3
:102C00004E01E3E08E0E911C02E010E07501FFEF33
:102C1000EF1AFF0AC5010E947829F40181934F0140
:102C20008823C1F08C3741F4E2E0F0E0EC0FFD1FA7
:102C3000E00FF11F108208C00F5F1F4F57010730D0
:102C4000110521F707C0750160E0C6010E947B1ADB
:102C50008701ABCF2896ECE00C943929CF93DF9312
:102C600086319C4709F5EB010E94380B9D81992321
:102C700071F08A7A91E009F490E09093B1028111A9
:102C800002C089E201C085E30E94611E09C08091F3
:102C9000B102811102C089E201C085E30E94781E61
:102CA0000E94DF0B80E001C081E0DF91CF910895A9
:102CB000CF93DF93FC01DB0115968C91882309F4F7
:102CC000DDC09F0130572332310508F0D8C0EF0135
:102CD0000E947B0C9093D6028093D502FE01E150B6
:102CE000F047E232F10520F4EE59FF4F0C940A2927
:102CF0008091D5028160AAC08091D6028860B2C05E
:102D00008091D5028260A2C08091D50220C08091BE
:102D1000D50288609BC08091D6021EC08091D602E9
:102D20008260A0C08091D502806190C08091D50260
:102D300080628CC08091D502806488C00E94A60603
:102D40008091D502806882C08091D50288608460BD
:102D50007DC08091D6028260816084C08091D5025E
:102D60008E7F74C08091D602877F7CC08091D5020F
:102D70008D7F6CC08091D50220C08091D502877F65
:102D800065C08091D6021EC08091D6028D7F6AC038
:102D90008091D5028F7E5AC08091D5028F7D56C01A
:102DA0008091D5028F7B52C00E94A6068091D502E9
:102DB0008F774CC08091D502877F8B7F47C08091F1
:102DC000D6028D7F8E7F4EC08091D50282FB222756
:102DD00020F991E0922790FB82F990FB83F936C0AD
:102DE0008091D602982F909591708E7F892B90FBC1
:102DF00081F938C08091D50286FB222720F991E025
:102E0000922790FB86F922C00E94A6068091D502E7
:102E100087FB222720F991E0922790FB87F916C0C3
:102E200081E001C080E00E94060D1EC08091D502A5
:102E300084FB222720F991E0922790FB84F906C0B9
:102E40008091D502982F909590FB80F98093D502C0
:102E50000BC08091D60283FB222720F991E09227B4
:102E600090FB83F98093D6028091D5029091D6028F
:102E70000E94800C0E94A60680E001C081E0DF91E4
:102E8000CF910895282F35EB2303C001112497FF1C
:102E900003C08058910902C080589F4F892F089520
:102EA0008091B80280FF06C060912C0170E0660F2F
:102EB000771F26C081FF04C060912C0184E005C00B
:102EC00082FF07C060912C0188E0689FB001112447
:102ED00017C09091B7029923D1F060912B019617FA
:102EE00088F720912C0188E0289F90011124929F5F
:102EF000A001939F500D112470E0CA010E94F62892
:102F00006038710540F46115710519F406C068E078
:102F100070E0862F08958FE7089581E008958091ED
:102F2000B80280FF08C06091280170E07595679530
:102F30007595679521C081FF06C06091280170E0FA
:102F40007595679519C082FF04C06091280170E0F3
:102F500010C09091B602992399F0609127019617BD
:102F6000A0F780912801899FC001112470E00E9480
:102F7000F6286038710540F46115710519F406C032
:102F800061E070E0862F08958FE7089581E008954D
:102F90008D3C21F40E945017819504C08E3C29F489
:102FA0000E9450178093BC0208958F3C21F40E9428
:102FB0005017819504C0803D29F40E9450178093DA
:102FC000BB020895893D19F40E948F1705C08A3D00
:102FD00031F40E948F1781958093BD0208958B3D37
:102FE00021F40E948F17819504C08C3D29F40E9422
:102FF0008F178093BE0208959FE2980F983078F45F
:1030000021E030E0A90102C0440F551F9A95E2F774
:10301000CA019091BA02892B8093BA0208958D3D1E
:1030200021F48091B80281600BC08E3D21F4809123
:10303000B802826005C08F3D29F48091B802846097
:103040008093B80208958D3C39F49091BC0297FFAB
:1030500035C01092BC0259C08E3C29F49091BC023C
:103060001916BCF32BC09091BB028F3C29F497FF3B
:1030700025C01092BB0249C0803D19F41916CCF34B
:103080001DC09091BD02893D29F41916BCF410921F
:10309000BD023BC08A3D19F497FF10C0F8CF8B3DAD
:1030A00039F49091BE0297FF09C01092BE022DC064
:1030B0008C3D21F49091BE021916BCF39FE2980F4B
:1030C000983080F421E030E0A90102C0440F551F80
:1030D0009A95E2F7CA0180959091BA02892380936C
:1030E000BA0213C08D3D21F48091B8028E7F0BC0CF
:1030F0008E3D21F48091B8028D7F05C08F3D29F46B
:103100008091B8028B7F8093B8028091BB028111BD
:1031100006C08091BC02811102C01092B70280915A
:10312000BD02811106C08091BE02811102C01092C1
:10313000B60208950E94841F2091BB02211104C091
:103140002091BC02222321F09093B5028093B40217
:103150002091BD02211104C02091BE02222321F042
:103160009093B3028093B20289EB92E00E94621DB9
:103170000895E9EBF2E086E0DF011D928A95E9F718
:103180001092B7021092B6021092B8020895FC0194
:10319000828181110DC0838181110AC084818111D6
:1031A00007C091E08581811101C090E0892F01C0A5
:1031B00081E081700895A6E0B0E0E1EEF8E10C94C2
:1031C000262986E0E9EBF2E0DE01119601900D92EE
:1031D0008A95E1F71092BB021092BC021092BD02D8
:1031E0001092BE028B81811104C08C81882309F466
:1031F00056C08091B4029091B5020E949C1FAC0110
:103200009091B702992339F020912D0130E02417D5
:10321000350758F044C020912E018AE0289F900184
:1032200011242417350718F03AC09F3F19F09F5F0B
:103230009093B7021B81112361F00E945017111661
:1032400014F09FEF01C091E0989F902D112490936E
:10325000BB021C81112361F00E945017111614F05B
:103260009FEF01C091E0989F902D11249093BC0294
:103270008091BB02882399F01091BC02112379F050
:103280000E944217811101C081E08093BB02812F0F
:103290000E944217811101C081E08093BC028D81A0
:1032A000811104C08E81882309F456C08091B20236
:1032B0009091B3020E949C1FAC019091B602992399
:1032C00039F02091290130E02417350758F044C027
:1032D00020912A018AE0289F9001112424173507A4
:1032E00018F03AC09F3F19F09F5F9093B6021D817E
:1032F000112361F00E948F17111614F09FEF01C087
:1033000091E0989F902D11249093BD021E8111236E
:1033100061F00E948F17111614F09FEF01C091E029
:10332000989F902D11249093BE028091BD02882316
:1033300099F01091BE02112379F00E944217811179
:1033400001C081E08093BD02812F0E94421781114C
:1033500001C081E08093BE02BE016F5F7F4F89EBA9
:1033600092E00E94A91E811105C089EB92E00E94A3
:10337000C71881110E949A1886E0FE013196A9EBC8
:10338000B2E001900D928A95E1F72696E3E00C9465
:1033900042298F929F92BF92CF92DF92EF92FF923B
:1033A0000F931F93CF93DF93E82FF0E0E055FE4F8C
:1033B000B490282F26952695269530E0F901E05BFC
:1033C000FD4FE4908770F12C082E02C0F594E7942D
:1033D0000A94E2F791E0E922FF24F901E05CFD4F55
:1033E000C490D12C082E02C0D594C7940A94E2F759
:1033F000E1E0CE22DD24F901E05DFD4FC491D0E093
:1034000002C0D595C7958A95E2F7C170DD27062FD2
:1034100010E0E114F10471F081EE0E94BE03C801D6
:10342000009741F0EFE9FFE03197F1F700C00000AD
:103430000197F6CFC114D10439F44801B8018B2D9E
:103440000E943B04C8010EC086EE0E94BE03C80164
:10345000009799F3EFE9FFE03197F1F700C0000022
:103460000197F6CF009741F0EFE9FFE03197F1F7D0
:1034700000C000000197F6CFCD2819F5EF2879F0AC
:1034800081EE0E9408040115110549F08FE99FE0C3
:103490000197F1F700C0000001501109F4CFCD2BC6
:1034A000F1F08CE20E94530481149104C1F0EFE921
:1034B000FFE03197F1F700C00000F1E08F1A9108AA
:1034C000F3CF86EE0E940804C8010097B9F2EFE935
:1034D000FFE03197F1F700C000000197F6CFDF91D0
:1034E000CF911F910F91FF90EF90DF90CF90BF9001
:1034F0009F908F900895EF92FF920F931F93CF9319
:10350000DF93EC01162F0AE08881882309F457C065
:10351000813009F04FC08981813041F47E0182E021
:10352000E80EF11C8A810E94530409C0823049F4DC
:103530007E01E2E0EE0EF11C8A810E94BE03E701EB
:103540002DC0833041F47E01F2E0EF0EF11C8A8140
:103550000E940804F4CF843011F021961FC02A8104
:10356000229680E090E030E0205331092A30310586
:1035700058F4089FA001099F500D1124C901840F20
:10358000951F21962881EFCF009741F0EFE9FFE0EA
:103590003197F1F700C000000197F6CF812F90E03E
:1035A000009759F0EFE9FFE03197F1F700C0000014
:1035B0000197F6CF612F0E94C9192196A5CFCDB7EB
:1035C000DEB7E6E00C943F290F931F93CF93DF9370
:1035D000C42FD22FFC0185818823B1F04093C10212
:1035E0000E94841F9093C0028093BF0280E28C0FE0
:1035F000883008F04DC0C77081E001C0880FCA95BF
:10360000EAF70E945D0444C08091C102481330C0B3
:103610008091BF029091C0020E949C1F883C91053E
:1036200038F510E21D0FCD17B9F080E28C0F88300D
:1036300040F4C77081E001C0880FCA95EAF70E9484
:103640006404183010F581E09D2F977001C0880F39
:103650009A95EAF70E945D04802F0E945304183067
:10366000B8F4D77081E001C0880FDA95EAF70AC094
:1036700080E28C0F883060F4C77081E001C0880F51
:10368000CA95EAF70E94640403C0802F0E94530485
:10369000DF91CF911F910F9108950F93FC01E85195
:1036A000FC47E730F10590F5CB01EC57FF4F0C9448
:1036B0000A2906E221EE41EE6AE17CE723C007E237
:1036C00025EE45EE6BE17CE71DC006E221EE40EE03
:1036D00068E17CE717C007E225EE44EE69E17CE78C
:1036E00011C006E221EE42EE6CE17CE70BC007E27E
:1036F00025EE46EE6DE17CE705C008E221E045EEEF
:103700006EE17CE70E94E41A80E008C0FB0185813D
:10371000882319F01092C10201C081E00F91089531
:103720001F93CF93DF9387372CE7920721F08837D9
:103730009C4759F031C0FB01C581CC2319F00E9490
:10374000D21B09C00E94D21B18C0FB01C581CC232B
:1037500091F00E94D51B0E941E070E94D81BD82FF3
:103760000E94D51BC82F0E94D21B4D2F6C2F0E9488
:103770004808C0E012C00E94D51B0E942A070E9480
:10378000D81B182F0E94D51BD82F0E94D21B412F67
:103790006D2F0E94480801C0C1E08C2FDF91CF91AE
:1037A0001F9108958091310108958091300108950D
:1037B00080912F01089584E290E00E94782984325C
:1037C00081F485E290E00E947829813151F486E20B
:1037D00090E00E94782991E0843009F090E0892FF0
:1037E00001C080E081700895CF93C82F811102C07D
:1037F0006FEF01C064E284E290E00E949629C1115B
:1038000002C06FEF01C061E185E290E00E9496295D
:10381000C11102C06FEF01C064E086E290E00E9437
:103820009629CF910895089587E290E00E94782923
:10383000682F70E080E090E008950895CF93C62F40
:103840000E941D1C6C2F87E290E00E949629CF9168
:10385000089580E00E94F41B60E070E0CB010E94BC
:103860001E1C0E94E6140E949B1581E00E94F41B1E
:1038700008950E94131C0E94141C0E941D1C0E948B
:10388000DB1B811102C00E94291C089508959C0130
:10389000FB018581882351F0A90157574038510514
:1038A00030F4C9010E94AB1580E0089581E00895CD
:1038B0002FEFFC01208308950E94581C089580E09A
:1038C0000895A0E0B0E0E7E6FCE10C941F29EC01CC
:1038D000F62E0E945F1C8111BEC0E8818E2F90E001
:1038E000FC013197E331F10508F0AFC0E557FF4F18
:1038F0000C940A2919828CE06BC08981823089F08E
:1039000030F4813009F0A1C00E94901F0CC08330B8
:1039100079F0843009F099C01A821B821C821D82C2
:1039200096C00E94141C9A838B837C836D838FC006
:10393000EA806E0183E0C80ED11C00E010E0AE2CDE
:10394000B12CC501800F911F089708F080C08E2D03
:10395000800F0E945E10F60181936F010F5F1F4F71
:103960000C31110571F773C08981823039F08530CF
:1039700009F06BC08A810E94461C69C06A817B8104
:103980008C819D810E9410290E941E1C60C04B8169
:103990006A8189810E94AA149C838D8358C02C81DE
:1039A0003D813227232732274B816A8189810E94FA
:1039B000CB144DC00E94E6144AC06F2DCE010E9468
:1039C0005C1C45C00E94521524C00E945415998366
:1039D0008A833DC06B8170E089819A81AE014C5F22
:1039E0005F4F9827892798270E94571530C06B8111
:1039F00070E089819A81AE014C5F5F4F98278927DB
:103A000098270E947A1523C00E949B1520C00E940F
:103A1000971489831CC06B8170E089819A81AE0103
:103A20004C5F5F4F9827892798270E9404150FC085
:103A30006B8170E089819A81AE014C5F5F4F98275E
:103A4000892798270E94261502C08FEF88836F2D43
:103A5000CE010E941522CDB7DEB7EAE00C943B29D7
:103A60009093C8028093C70208950E944912811161
:103A700003C08091C2020895E091C702F091C8028C
:103A8000309729F00190F081E02D0995089580E0AC
:103A90000895E091C702F091C802309721F00280AA
:103AA000F381E02D09950895E091C702F091C802D5
:103AB000309739F026E0DC012C930480F581E02D6D
:103AC00009950895E091C702F091C802309739F046
:103AD00022E0DC012C930680F781E02D0995089502
:103AE000A3E0B0E0E6E7FDE10C9427292091C502B0
:103AF0003091C60228173907A1F09093C60280932F
:103B0000C502E091C702F091C802309751F023E05E
:103B100029839B838A830084F185E02DCE01019661
:103B200009952396E2E00C944329A3E0B0E0EBE989
:103B3000FDE10C9427292091C3023091C40228177B
:103B40003907A1F09093C4028093C302E091C702A9
:103B5000F091C802309751F024E029839B838A8337
:103B60000084F185E02DCE01019609952396E2E0CF
:103B70000C944329E0910201F09103013296809167
:103B80003C01882359F08091D50287FF07C0E0915E
:103B90000001F091010132969EE101C096E080E0C3
:103BA000915028F021912223D9F38F5FF9CF089506
:103BB000882399F190913C01992309F19091D502C4
:103BC00097FF1DC0982F9695969596959E3128F54E
:103BD000E0910001F0910101E90FF11D2281422FD6
:103BE00050E0877021E030E002C0220F331F8A9539
:103BF000E2F72423352381E0232B91F40EC020919A
:103C0000020130910301F9013296285F3F4F9191F3
:103C1000891729F0E217F307D1F780E0089581E0D2
:103C200008959C01FC0132969FEF80E04191461778
:103C300089F09F3F19F4411101C0982F8F5F8630A2
:103C4000A9F79F3F39F0F901E90FF11D97FDFA95AA
:103C50006283089508959C012A5F3F4FFC014281D1
:103C6000461301C01282019682179307B9F708958F
:103C7000262F2695269526952E3168F4FC01E20F15
:103C8000F11D677021E030E001C0220F6A95EAF76C
:103C90008281282B22830895262F26952695269506
:103CA0002E3170F4FC01E20FF11D677021E030E06D
:103CB00001C0220F6A95EAF720958281282322838A
:103CC0000895682F80913C01882359F08091D50296
:103CD00087FF07C080910001909101010E94381E6A
:103CE000089580910201909103010E94111E089590
:103CF000682F80913C01882359F08091D50287FF7D
:103D000007C080910001909101010E944C1E08950E
:103D100080910201909103010E942B1E08958091D1
:103D20003C01882359F08091D50287FF07C0E091BC
:103D30000001F091010132968EE106C0E09102018E
:103D4000F0910301329686E0DF011D928A95E9F732
:103D50000895DC01FB0111969C91119781819813C4
:103D600021C012968C911297882319F092818913A1
:103D700019C013968C911397882319F09381891396
:103D800011C015968C911597882319F09581891388
:103D900009C014969C91992339F081E0248129135C
:103DA00004C002C081E001C080E0817008950895E0
:103DB0000E94D71E089583E08093C9020E94D81EF6
:103DC0000895811102C081E001C082E08093C902A0
:103DD0000E94D81E08950E94E11E089581E08093FC
:103DE000C9020E94D81E08950E94EE1E08950895EB
:103DF0000E94F71E08950E94F81E08950E94F71E63
:103E000008950E94F71E08950E94F71E0895CF930B
:103E10000E94011F0E94C2110E94FE1EC0E08C2F52
:103E20000E945E10811104C0CF5FC830C1F701C08D
:103E300081E0CF91089585B7806885BF85B7806898
:103E400085BF08951F920F920FB60F9211248F9382
:103E50009F93AF93BF938091CA02811113C0809149
:103E6000ED029091EE02A091EF02B091F002419626
:103E7000A11DB11D8093ED029093EE02A093EF027D
:103E8000B093F002BF91AF919F918F910F900FBEB1
:103E90000F901F9018958091F502843031F10E94A7
:103EA00036031092CA0220E488E190E00FB6F8943D
:103EB000A895809360000FBE2093600083B7817F38
:103EC000846083BF83B7816083BF7894889583B70C
:103ED0008E7F83BF0FB6F894A895809160008861AB
:103EE00080936000109260000FBE08950E94A606A5
:103EF0000E943B03089582E084BD93E095BD9AEF54
:103F000097BD80936E0008952FB7F8948091ED02CD
:103F10009091EE02A091EF02B091F0022FBF0895B0
:103F20002FB7F8946091ED027091EE028091EF024C
:103F30009091F0022FBF08959C014FB7F8948091A3
:103F4000ED029091EE02A091EF02B091F0024FBF0E
:103F5000821B930B0895CF92DF92EF92FF922FB7BF
:103F6000F894C090ED02D090EE02E090EF02F09055
:103F7000F0022FBFA7019601261B370B480B590BE8
:103F8000CA01B901FF90EF90DF90CF900895789427
:103F90001F920F920FB60F9211248F939F93AF939E
:103FA000BF938091ED029091EE02A091EF02B0914B
:103FB000F0020196A11DB11D8093ED029093EE02D7
:103FC000A093EF02B093F002BF91AF919F918F91B8
:103FD0000F900FBE0F901F90189587E797E790936B
:103FE0000108809300089AE088E10FB6F894A8953C
:103FF000809360000FBE90936000FFCF9AE088E14D
:104000000FB6F894A895809360000FBE909360005F
:10401000FFCF8EE14B9B02C08150E1F74B9BFECF5F
:1040200008955B9880E28A95F1F75B9A0895FC0108
:104030002AE02A95F1F728E090E080E031E040E1C5
:104040004A95F1F7880F4B9B02C08160932700C00F
:10405000000040E14A95F1F7215089F720E12A95C7
:10406000F1F729B100C0000030E13A95F1F723FBE8
:10407000222720F992272081920F90830895A1E0B2
:10408000B0E0E5E4F0E20C94232919828C017C0174
:10409000E60EF11C0E151F0551F00E940920CE01FD
:1040A00001960E941720F80181938F01F3CF81E0E0
:1040B0009981911180E02196E6E00C943F29539A72
:1040C0005B9A089553985B9AEB9AE9E6F0E0808159
:1040D0008F7380830895615091E001C0990F6A95B4
:1040E000EAF720E031E0992361F0492F482319F0E5
:1040F0005B9A232701C05B9840E24A95F1F79695B9
:10410000F2CF222311F05B9A01C05B9880E28A957E
:10411000F1F75B980895FF920F931F93CF93DF936E
:10412000EC018C01060F111DC017D10741F0F99069
:104130000E94112068E08F2D0E946B20F5CFCDB733
:10414000DEB7E5E00C9440291F920F920FB60F9254
:1041500011240F931F932F933F934F935F936F936C
:104160007F938F939F93AF93BF93EF93FF93CF93DF
:10417000DF931F92CDB7DEB719820E940920CE01CE
:1041800001960E941720082F069506950695902FF8
:1041900096959570202F2570920F292F2370969554
:1041A0009695920F877089135FC0898181115CC0D9
:1041B000043008F059C080E18A95F1F75B9A539A70
:1041C00082E08A95F1F700C05B9888E0089F800143
:1041D0001124D801A15FBE4F1696ED91FC9117975F
:1041E0003097A9F06091B9017091BA0114962D91A0
:1041F0003C911597260F371F11968D919C91129720
:10420000680F791F13964C9113978C910995F801BB
:10421000E15FFE4F6381662351F08091B901909177
:10422000BA0124813581820F931F0E948B200E9446
:10423000112080E18A95F1F75B9853985B9A80E1B1
:104240008A95F1F7F801E15FFE4F6081662351F036
:104250008091B9019091BA0121813281820F931F1F
:104260000E943F200E9409200F90DF91CF91FF9183
:10427000EF91BF91AF919F918F917F916F915F91DE
:104280004F913F912F911F910F910F900FBE0F9063
:104290001F9018950F931F93CF93DF938430910550
:1042A0000CF06DC0EC01F894539A5B9885E08A9508
:1042B000F1F700009C2F969595702C2F2570920F8A
:1042C000892F83709695969523E0CC0FDD1F2A9554
:1042D000E1F7980F8E01092B0E94112084E08A9546
:1042E000F1F700C068E0802F0E946B2080E18A9582
:1042F000F1F753985B9A4B9902C000C0FCCF87E05E
:1043000090E04B9B08C0019721F4539A5B9A7894F4
:1043100036C000C0F6CFFE01E15FFE4F6381662329
:1043200081F08091B9019091BA0124813581820F89
:10433000931F0E943F20811104C0539A5B9A789486
:104340001FC00E94092080E28A95F1F75B98539A7A
:1043500080E18A95F1F7C15FDE4F6881662351F0F5
:104360008091B9019091BA0129813A81820F931FFE
:104370000E948B200E941120789481E001C080E08F
:10438000DF91CF911F910F9108958091D3020895ED
:104390009B019091F5029430F1F48F708093E900C5
:1043A0008FEF9091E800815095FD06C095ED9A95AC
:1043B000F1F700008111F5CF8091E80085FF0BC077
:1043C000BA01C90140E050E00E9411248091E80048
:1043D0008E778093E800089543E050E0BC0184E0CC
:1043E0000E94C821089546E050E0BC0184E00E948C
:1043F000C821089540E250E0BC0184E00E94C82139
:104400000895CF93DF93EC0148E050E0BC0181E0D8
:104410000E94C82188E0FE01ABECB2E001900D9251
:104420008A95E1F7DF91CF910895603231F4BC01B4
:1044300040E250E082E00E94C8210895A0E2B0E08E
:10444000E4E2F2E20C9427298091F502843011F520
:1044500083E08093E9008091E80082FF1BC0809197
:10446000E80085FF0AC040E050E060E270E0CE0165
:1044700001960E94562491E001C090E08091E800EE
:104480008B778093E800992329F060E2CE010196B2
:104490000E94611CA096E2E00C9443298091F402F2
:1044A000811109C00E94E1250E943E268091E20010
:1044B00084608093E20008951092F40208950E94AF
:1044C000F41E08956091F10281E0611101C080E065
:1044D0000E94DB1E08959091F50281E0943009F06E
:1044E00080E06091F1020E94E11E089542E061ECDB
:1044F00081E00E945A2542E261EC84E00E945A2544
:1045000042E261EC82E00E945A2542E260EC83E0E4
:104510000E945A259091F50281E0943009F080E0E4
:104520006091F1020E94EB1E08958091F7028330A2
:1045300009F463C030F4813071F0823009F49DC019
:1045400008958A3009F489C08B3009F46EC089302F
:1045500009F0ABC020C08091F602813A09F0A5C0F5
:104560008091E800877F8093E8008091FA02909123
:10457000FB02892B21F468E08BEC92E003C060E041
:1045800080E090E070E00E949B248091E8008B77AF
:104590008093E80008958091F602813209F085C089
:1045A0008091FA029091FB02009719F0029709F0AE
:1045B0007CC08091E800877F8093E8008091E800CC
:1045C00082FD05C08091F5028111F8CF6EC0209167
:1045D000F3008091F20090E0922B029731F48091E9
:1045E000F100813011F0863021F48091F100809348
:1045F000D3028091E8008B7754C08091F602813A13
:1046000009F053C08091FA029091FB02892B09F0C6
:104610004CC08091E800877F8093E8008091E8009B
:1046200080FFFCCF80913C0137C08091F60281323F
:10463000E1F58091FA029091FB02892BB1F580910E
:10464000E800877F8093E8000E948F258091F80220
:1046500080933C010E94A60608958091F602813263
:1046600021F58091E800877F8093E8000E948F25E4
:104670008091F9028093D40208958091F602813AE4
:10468000A1F48091E800877F8093E8008091E800A2
:1046900080FFFCCF8091D4028093F1008091E800EC
:1046A0008E778093E8000E948F25089584B7877FD6
:1046B00084BF0FB6F894A8958091600088618093BC
:1046C0006000109260000FBE90E080E80FB6F89492
:1046D00080936100909361000FBE0E94EE1E0895CA
:1046E0000E94E1250E943E26E2EEF0E08081846097
:1046F000808378940E94C928089582E391E00E9403
:10470000301D08958091F5028530A9F48091F5025D
:10471000853079F40E944B1F0E94071F8823B1F354
:104720008091F302882391F30E94FB230E94A60646
:10473000EDCF0E94761F089508959A014091FC02E2
:104740005091FD020E94A5230895492F552743301B
:104750005105C9F060F44130510581F042305105F6
:1047600009F041C08BE590E042EA52E040C041329E
:104770005105E1F04232510531F135C082E190E05E
:104780004DEF52E034C099278130910549F028F06F
:10479000029749F5E0E6F2E005C0EEE9F2E002C07A
:1047A000ECE8F2E0849190E0AF0121C06330710544
:1047B000D0F4660F771FFB01EC53FE4F408151810F
:1047C00089E090E014C06330710568F4FB01EE0FDE
:1047D000FF1FE254FE4F40815181FB01E554FE4F23
:1047E000808190E004C080E090E040E050E0F9017A
:1047F00051834083089580E189BD82E189BD09B478
:1048000000FEFDCF8091D8008F7D8093D8008091ED
:10481000E00082608093E0008091E00081FDFCCFA9
:104820000895A0E0B0E0E7E1F4E20C942129EC0166
:104830008B017A010E94AE25811133C0E114F1048D
:1048400039F0F70180819181081B190BC80FD91F1E
:10485000C12CD12C0115110519F18091E80085FDBD
:1048600016C08091E8008E778093E800E114F1048F
:1048700049F0F70180819181C80ED91ED182C08292
:1048800085E00FC00E94AE25882321F30AC08991DC
:104890008093F10001501109FFEFCF1ADF0ADACF40
:1048A00080E0CDB7DEB7E8E00C943D29A0E0B0E0B1
:1048B000ECE5F4E20C942129EC018B017A010E94D1
:1048C000AE25811133C0E114F10439F0F701808184
:1048D0009181081B190BC80FD91FC12CD12C0115B0
:1048E000110519F18091E80085FD16C08091E8005E
:1048F0008B778093E800E114F10449F0F70180819F
:104900009181C80ED91ED182C08285E00FC00E945D
:10491000AE25882321F30AC08091F10089930150CC
:104920001109FFEFCF1ADF0ADACF80E0CDB7DEB78B
:10493000E8E00C943D292091FC023091FD022617FD
:10494000370748F06115710539F42091E8002E779A
:104950002093E80001C0B901FC0120E06115710558
:1049600079F18091F5028823F1F18530F1F18091A0
:10497000E80083FD3CC08091E80082FD2EC080915C
:10498000E80080FFEBCF2091F3008091F20090E0EF
:10499000922B6115710551F08830910538F4219101
:1049A0002093F100615071090196F3CF21E008973F
:1049B00009F020E08091E8008E778093E800CECF68
:1049C0002111CFCF0AC08091F502882361F0853094
:1049D00061F08091E80083FD0AC08091E80082FFC9
:1049E000F2CF80E0089582E0089583E0089581E0A9
:1049F00008952091FC023091FD022617370748F0F8
:104A00006115710539F42091E8002E772093E800B4
:104A100001C0B901FC0120E06115710591F180919F
:104A2000F502882309F440C0853009F43FC0809125
:104A3000E80083FD3DC08091E80082FD2FC0809199
:104A4000E80080FFE9CF2091F3008091F20090E030
:104A5000922B6115710559F08830910540F424912D
:104A60002093F1003196615071090196F2CF21E057
:104A7000089709F020E08091E8008E778093E800A5
:104A8000CBCF2111CCCF0AC08091F502882361F0F1
:104A9000853061F08091E80083FD0AC08091E800D4
:104AA00082FFF2CF80E0089582E0089583E00895C8
:104AB00081E00895982F973068F59093E900981752
:104AC00039F07091EC002091ED005091F00003C09E
:104AD000242F762F50E021FD02C09F5FECCF309154
:104AE000EB003E7F3093EB003091ED003D7F309343
:104AF000ED003091EB0031603093EB007093EC00EF
:104B00002093ED005093F0002091EE0027FDE5CFBB
:104B100080E008958F708093E90081E0089580918E
:104B2000F60287FF11C08091E80082FD05C08091E8
:104B3000F5028111F8CF11C08091E8008B770BC08E
:104B40008091F502882349F08091E80080FFF8CF3A
:104B50008091E8008E778093E80008952091E4002A
:104B60003091E50095E64091EC00842F817040FF84
:104B700023C08091E80080FD1DC08091F50288234C
:104B800099F0853099F08091EB0085FD11C040913E
:104B9000E4005091E5002417350729F3915011F0F6
:104BA0009A01E1CF84E0089582E0089583E00895BA
:104BB00081E0089580E008954091E80042FFDDCF54
:104BC00008950E9450260E945826E0EEF0E0808171
:104BD00081608083E8EDF0E080818F77808319BC6D
:104BE000A7EDB0E08C918E7F8C9380818F7E808347
:104BF0001092F40208950F931F93CF93DF930E94B6
:104C000050260E945826C8EDD0E088818F7788838F
:104C100088818068888388818F7D888319BC109201
:104C2000F5021092F1021092F3021092F20200EEDD
:104C300010E0F80180818B7F808388818160888388
:104C400042E060E080E00E945A25E1EEF0E08081E1
:104C50008E7F8083E2EEF0E08081816080838081BE
:104C600088608083F80180818E7F80838881806165
:104C70008883DF91CF911F910F910895E8EDF0E0C7
:104C800080818F7E8083E7EDF0E08081816080838A
:104C900084E082BF81E08093F4020E94FB250895A6
:104CA000E8EDF0E080818E7F80831092E20008952D
:104CB0001092DA001092E10008951F920F920FB641
:104CC0000F9211242F933F934F935F936F937F9392
:104CD0008F939F93AF93BF93EF93FF938091E100E6
:104CE00082FF0BC08091E20082FF07C08091E1004B
:104CF0008B7F8093E1000E94C8288091DA0080FFBA
:104D00001FC08091D80080FF1BC08091DA008E7F89
:104D10008093DA008091D90080FF0DC080E189BDC9
:104D200082E189BD09B400FEFDCF81E08093F502E8
:104D30000E944E2205C019BC1092F5020E945C220E
:104D40008091E10080FF19C08091E20080FF15C0D2
:104D50008091E2008E7F8093E2008091E20080618A
:104D60008093E2008091D80080628093D80019BCC3
:104D700085E08093F5020E9462228091E10084FF29
:104D800030C08091E20084FF2CC080E189BD82E1C7
:104D900089BD09B400FEFDCF8091D8008F7D80933E
:104DA000D8008091E1008F7E8093E1008091E20045
:104DB0008F7E8093E2008091E20081608093E20028
:104DC0008091F102882311F084E007C08091E30014
:104DD00087FD02C081E001C083E08093F5020E945C
:104DE0006B228091E10083FF29C08091E20083FF64
:104DF00025C08091E100877F8093E10082E080936D
:104E0000F5021092F1028091E1008E7F8093E10023
:104E10008091E2008E7F8093E2008091E2008061C9
:104E20008093E20042E060E080E00E945A25809199
:104E3000F00088608093F0000E945F22FF91EF9164
:104E4000BF91AF919F918F917F916F915F914F91A2
:104E50003F912F910F900FBE0F901F9018951F92AA
:104E60000F920FB60F9211242F933F934F935F939E
:104E70006F937F938F939F93AF93BF93CF93DF9362
:104E8000EF93FF93C091E900CF708091EC00D82F91
:104E9000D17080FDD0E81092E9008091F000877F0A
:104EA0008093F00078940E9473271092E90080911B
:104EB000F00088608093F000CD2BCF70C093E900A4
:104EC000FF91EF91DF91CF91BF91AF919F918F9122
:104ED0007F916F915F914F913F912F910F900FBEF6
:104EE0000F901F901895AAE2B0E0E9E7F7E20C9462
:104EF0002629E6EFF2E08091F100819322E0EE3F77
:104F0000F207C9F70E9495228091E80083FF2EC125
:104F10008091F6029091F702492F50E04A305105F6
:104F200008F024C1FA01E256FF4F0C940A29803898
:104F300021F0823809F01AC108C08091F2029091E4
:104F4000F302992389F082600FC08091FA028F707A
:104F5000873008F00BC18093E9008091EB0085FB5E
:104F6000882780F91092E9009091E800977F90934C
:104F7000E8008093F1001092F100D1C0282F2D7F1E
:104F800009F0F4C0882319F0823061F0EFC08091FD
:104F9000F802813009F0EAC0933009F080E0809394
:104FA000F3022EC08091F80281112AC08091FA028A
:104FB0008F702FEF280F263008F0D8C08093E900BB
:104FC0002091EB0020FF1CC0933021F48091EB0076
:104FD000806214C09091EB0090619093EB0021E00F
:104FE00030E0A90102C0440F551F8A95E2F74093B3
:104FF000EA001092EA008091EB0088608093EB0059
:105000001092E9008091E800877F8093E8000E9479
:105010008F25ACC08111AAC01091F8021F77809132
:10502000E3008078812B8093E3008091E800877F04
:105030008093E8000E948F258091E80080FFFCCFDC
:105040008091E30080688093E300111102C082E048
:1050500001C083E08093F50289C08058823008F057
:1050600085C08091F8029091F9028C3D53E095073C
:1050700079F583E08A838AE289834FB7F894DE0169
:10508000139620E03EE051E2E32FF0E0509357000A
:10509000E49120FF03C0E295EF703F5FEF708E2F29
:1050A00090E0EA3010F0C79601C0C0968D939D93B2
:1050B0002F5F243149F74FBF8091E800877F8093AD
:1050C000E8006AE270E0CE0101960E949B2416C0BF
:1050D0006091FA027091FB02AE014F5F5F4F0E9438
:1050E0009D23BC01892B09F441C09091E800977F72
:1050F0009093E80089819A810E94F9248091E800C8
:105100008B778093E80032C0803881F58091E80089
:10511000877F8093E8008091F1028093F100809175
:10512000E8008E7772CF811121C08091F8029091B2
:10513000F90299270297D4F48091E800877F809341
:10514000E8008091F8028093F1020E948F258091FF
:10515000F102811106C08091E30087FD02C081E069
:1051600001C084E08093F5020E9476228091E800DD
:1051700083FF0AC08091E800877F8093E8008091D8
:10518000EB0080628093EB00AA96E3E00C94422946
:105190000895CF938091F5028823A1F0C091E90092
:1051A000CF709091EC00892F817090FD80E8C82B22
:1051B0001092E9008091E80083FD0E947327CF7070
:1051C000C093E900CF9108950E94E1251092F50265
:1051D0000895E8EDF0E08081806180838AE18A951E
:1051E000F1F700C08091D9008170089597FB072ED8
:1051F00016F4009407D077FD09D00E944E2907FCD1
:1052000005D03EF4909581959F4F089570956195D6
:105210007F4F0895EE0FFF1F0590F491E02D099444
:1052200069279627692778278727782708952F9257
:105230003F924F925F926F927F928F929F92AF9226
:10524000BF92CF92DF92EF92FF920F931F93CF9373
:10525000DF93CDB7DEB7CA1BDB0B0FB6F894DEBF0A
:105260000FBECDBF09942A88398848885F846E8430
:105270007D848C849B84AA84B984C884DF80EE807A
:10528000FD800C811B81AA81B981CE0FD11D0FB683
:10529000F894DEBF0FBECDBFED010895AA1BBB1B66
:1052A00051E107C0AA1FBB1FA617B70710F0A61B26
:1052B000B70B881F991F5A95A9F780959095BC0147
:1052C000CD010895FB01DC0104C08D91019080198E
:1052D00021F441505040C8F7881B990B0895FB01F9
:1052E000DC0102C001900D9241505040D8F7089562
:1052F000F999FECF92BD81BDF89A992780B508959E
:10530000A8E1B0E042E050E00C94BC29DC01A40F1D
:10531000B51F4150504048F0CB01840F951F2E918E
:105320000E94972941505040D0F70895262FF999AF
:10533000FECF92BD81BDF89A019700B4021639F0F4
:105340001FBA20BD0FB6F894FA9AF99A0FBE0895C5
:105350000396272F0E9497290E949629252F0E94A5
:105360009729242F0C9497290196272F0E9497297B
:105370000C949629DC01CB01FC01F999FECF06C003
:10538000F2BDE1BDF89A319600B40D924150504003
:08539000B8F70895F894FFCF6F
:1053980052027202946697C63435F4F5F6F70100A6
:1053A80000000100000000000000040100000004EB
:1053B80005000000000000280850011E0A1401031F
:1053C8000201C5210122FA21F321EC2101F4F5F6AD
:1053D800F73534C6976694E200E900EA00B500B6EE
:1053E80000B700CD008301CC008A0192019401210D
:1053F80002230224022502260227022A02B300B44D
:10540800006F0070009F01CB019F02A00281828380
:10541800E200E900EA00B500B600B700CD0083015C
:10542800CC008A0192019401210223022402250260
:10543800260227022A02B300B4006F0070009F0101
:10544800CB019F02A00281828398024422B6E7031F
:0A5458000F033103B402CD02ED0290
:00000001FF
